{
  "contractName": "Transaction",
  "abi": [
    {
      "constant": true,
      "inputs": [],
      "name": "getPurchasers",
      "outputs": [
        {
          "name": "",
          "type": "address[100]"
        }
      ],
      "payable": false,
      "stateMutability": "view",
      "type": "function"
    },
    {
      "constant": true,
      "inputs": [
        {
          "name": "",
          "type": "uint256"
        }
      ],
      "name": "purchaser",
      "outputs": [
        {
          "name": "",
          "type": "address"
        }
      ],
      "payable": false,
      "stateMutability": "view",
      "type": "function"
    },
    {
      "constant": false,
      "inputs": [
        {
          "name": "itemId",
          "type": "uint256"
        }
      ],
      "name": "buy",
      "outputs": [
        {
          "name": "",
          "type": "uint256"
        }
      ],
      "payable": false,
      "stateMutability": "nonpayable",
      "type": "function"
    }
  ],
  "bytecode": "0x6060604052341561000f57600080fd5b6103c48061001e6000396000f300606060405260043610610057576000357c0100000000000000000000000000000000000000000000000000000000900463ffffffff1680630409eb851461005c5780637bcf099d146100ad578063d96a094a14610110575b600080fd5b341561006757600080fd5b61006f610147565b6040518082606460200280838360005b8381101561009a57808201518184015260208101905061007f565b5050505090500191505060405180910390f35b34156100b857600080fd5b6100ce60048080359060200190919050506101c8565b604051808273ffffffffffffffffffffffffffffffffffffffff1673ffffffffffffffffffffffffffffffffffffffff16815260200191505060405180910390f35b341561011b57600080fd5b61013160048080359060200190919050506101fd565b6040518082815260200191505060405180910390f35b61014f610359565b60006064806020026040519081016040528092919082606480156101be576020028201915b8160009054906101000a900473ffffffffffffffffffffffffffffffffffffffff1673ffffffffffffffffffffffffffffffffffffffff1681526020019060010190808311610174575b5050505050905090565b6000816064811015156101d757fe5b016000915054906101000a900473ffffffffffffffffffffffffffffffffffffffff1681565b6000806000808410158015610213575060638411155b151561021e57600080fd5b3360008560648110151561022e57fe5b0160006101000a81548173ffffffffffffffffffffffffffffffffffffffff021916908373ffffffffffffffffffffffffffffffffffffffff1602179055503391507396a05fc548eee68540ed874913d260739aedd11890508173ffffffffffffffffffffffffffffffffffffffff1663d0679d348260026000604051602001526040518363ffffffff167c0100000000000000000000000000000000000000000000000000000000028152600401808373ffffffffffffffffffffffffffffffffffffffff1673ffffffffffffffffffffffffffffffffffffffff16815260200182815260200192505050602060405180830381600087803b151561033357600080fd5b6102c65a03f1151561034457600080fd5b50505060405180519050508392505050919050565b610c80604051908101604052806064905b600073ffffffffffffffffffffffffffffffffffffffff1681526020019060019003908161036a57905050905600a165627a7a72305820b0aa074ad89267f3e994166c4173b9c10e2bd4a48e723bedcee54a23b54310320029",
  "source": "pragma solidity ^0.4.17;\n\n\ncontract Coin {\n    // The keyword \"public\" makes those variables\n    // readable from outside.\n    address public minter;\n    mapping (address => uint) public balances;\n\n    // Events allow light clients to react on\n    // changes efficiently.\n    event Sent(address from, address to, uint amount);\n\n    // This is the constructor whose code is\n    // run only when the contract is created.\n    function Coin() {\n        minter = msg.sender;\n    }\n    function mint(address receiver, uint amount) {\n        if (msg.sender != minter) return;\n        balances[receiver] += amount;\n    }\n    function send(address receiver, uint amount) public returns(bool successful) {\n        if (balances[msg.sender] < amount) return false;\n        balances[msg.sender] -= amount;\n        balances[receiver] += amount;\n        Sent(msg.sender, receiver, amount);\n        return true;\n    }\n}\n\ncontract Transaction {\n  address[100] public purchaser;\n\n  function buy(uint itemId) public returns (uint) {\n    require(itemId >= 0 && itemId <= 99);\n    purchaser[itemId] = msg.sender;\n    Coin c = Coin(msg.sender);\n    address test = 0x96a05FC548eee68540Ed874913d260739AEDd118;\n    c.send(test, 2);\n    return itemId;\n  }\n\n  function getPurchasers() public view returns (address[100]) {\n    return purchaser;\n  }\n\n}\n",
  "sourcePath": "/Users/TheDeveloper/Desktop/test2/contracts/Transaction.sol",
  "compiler": {
    "name": "solc",
    "version": "0.4.19+commit.c4cbbb05.Emscripten.clang"
  },
  "schemaVersion": "2.0.0",
  "updatedAt": "2018-03-02T19:56:25.012Z"
}